:03000000020BD719
:0C0BD700787FE4F6D8FD758120020C1E2A
:100F2F00010D01010E01030F00000003120000006C
:100F3F00010800010A00011500010C03010B01015A
:020F4F00090097
:100F6300758901758C3C758A3CD2A9D2AFD28C228B
:100ED900C290C291C292C293C294C295C280C28189
:100EE900C296C297C284C285C2B3C2B4C282C28644
:0F0EF900C2B7C2B6C3E50C950B04F509020F632F
:100EA600EF146012146009147010D282D283800A83
:100EB600D282C2838004C282D283ED146010146091
:100EC6000814700ED286D28722D286C28722C286A4
:030ED600D287229E
:100F5200EF3395E0C364809480400122EFF404FFF4
:010F6200226C
:060C63008B1B8A1C891D99
:100C6900ED14FE8D20E51FFB3395E04B702FC3E596
:100C79000C6480F8EE6480985064AB1BAA1CA91D13
:100C8900EEF5823395E0F583120E39FB3395E0FAE0
:100C9900EB64014A7004EE04F5200E80D1E51FFBD8
:100CA9003395E0FAEB64014A7034ED14FEE50B1458
:100CB900C36480F8EE6480984024AB1BAA1CA91D6C
:100CC900EEFD3395E08D82F583120E39FD3395E003
:100CD900FCED64014C7004EE04F5201E80CFAF20BA
:010CE90022E8
:040A45008F168D1764
:100A4900751864751964AF17EF3395E0FE4F701090
:100A590030840DD3E5166480F8E50D648098501450
:100A6900EF4E7014308511C3E5166480F8E50D6406
:100A7900809850047F0180027F00E517FD3395E0DF
:100A89004D701030B30DD3E5166480F8E50E64801F
:100A9900985019E517FD3395E04D701430B411C322
:100AA900E5166480F8E50E64809850047E018002A2
:100AB9007E008E1AEF3395E0FEEF64014E7018FB4D
:100AC9007A00790F85171FAD0D120C63EF25E0C36E
:100AD900950DC395168005C3E516950DFF120F52A6
:100AE9008F18AF1AEF3395E0FEEF64014E7018FBD3
:100AF9007A00791285171FAD0E120C63EF25E0C33A
:100B0900950EC395168005C3E516950EFF120F5273
:100B19008F19D3E5196480F8E51864809850047436
:0A0B29000E800274112516F8760103
:010B3300229F
:100F0800EF24FE600A14601C2402701AC29722EDB6
:100F1800FF3395E0FE4F7003C28122EF64014E70EB
:070F280005C29622C28022DF
:100D6900D2B6D2B57411250EF8E4F6FBAD0E7F01AB
:100D7900AE05AD03EFFB3395E04B7018EE24FE6032
:100D89000B14600C2402702EC292802AC291802614
:100D9900C2908022EFFB3395E0FAEB64014A7016AA
:100DA900EE24FE600B14600C2402700AC2958006C2
:0B0DB900C2948002C293AF06020F0834
:060B34008B178A188919D5
:100B3A00ED24FEFFAE05ED3395E0FC74FF2DF58242
:100B4A0074FF3CF583120E39FD3395E0FCED640128
:100B5A004C70037F0222E50B14FDC36480F8EF6436
:100B6A008098500CC3E50C6480F8EE648098505A63
:100B7A00C3ED6480F8EF648098401FAB17AA18A9E8
:100B8A0019EFFD3395E08D82F583120E39FD339509
:100B9A00E0FCED64014C7002FF22C3E50C6480F8AE
:100BAA00EE6480985020AB17AA18A919EEFD339568
:100BBA00E08D82F583120E39FD3395E0FCED640178
:0C0BCA004C70037F01220E1F808C7F0303
:010BD60022FC
:060E66007B007A00790F09
:060E6C008B178A1889199A
:100E7200E4FFC3E5096480F8EF6480985023AB1760
:100E8200AA18A919EFFD3395E08D82F583120E3968
:100E9200FD3395E0FCED64014C70037F01220F806D
:030EA200D17F00FD
:010EA500222A
:100CEA0020900820A105D29075110120910820A218
:100CFA0005D29175100120920820A305D292750F92
:100D0A000120930820A405D2937514012094082089
:100D1A00A505D29475130120950820A605D29575CC
:100D2A00120120800C20A709D2807D017F03120ABC
:100D3A004520810C20B009D281E4FD7F02120A45C8
:100D4A0020960C20B109D2967D017F02120A452015
:0F0D5A00970C20B209D297E4FD7F01120A4522BF
:03000B00020DC41F
:100DC400C0E0C0F0C083C082C0D075D000C000C0F5
:100DD40001C002C003C004C005C006C007758C3C36
:100DE400758A3C0515E51575F00A120E17AFF0EF7C
:100DF4003395E04F70020508D007D006D005D00423
:100E0400D003D002D001D000D0D0D082D083D0F093
:030E1400D0E032F9
:10080000AF0AEF3395E0FEAD08ED3395E0FCC3EDA4
:100810009FFFEC9EFED3EF9400EE64809480500323
:10082000020A3A30B707C2B7C2A0020939120E66EF
:10083000EF700302093920844D20854A740E250D7E
:10084000F8E6FF3395E0FEEF64014E701BD2B7D29D
:10085000A0740E250DF8E4F6FBAD0DFF120D797BAB
:1008600001AD0DE4FF120D797B007A00790FAD0D1B
:10087000120B34EF600B146003020939D2840209B1
:0908800039D28502093930845592
:100889007B007A00790FE4F51FAD0D120C638F160A
:10089900C3E5166480F8E50D6480985025050D744C
:1008A9000E250DF8E6FF3395E0FEEF64014E701258
:1008B900D2B7D2A0740E250DF8E4F6FBAD0DFF12E8
:1008C9000D79E50D65167068FB120E68EF605DC263
:0508D90084D285805B64
:0308DE003085580A
:1008E1007B007A00790F751F01AD0D120C638F1615
:1008F100D3E5166480F8E50D6480984026150D74E3
:100901000E250DF8E6FF3395E0FEEF64014E7013FE
:10091100D2B7D2A0740E250DF8E4F67B01AD0DFF20
:10092100120D79E50DB51610120E66EF6006D28430
:08093100C2858004C284C28566
:1009390030B607C2B6C2B5020A3A7B007A0079120C
:10094900120E6CEF7003020A3A20B33A20B43774DE
:1009590011250EF8E6FF3395E0FEEF64014E7008AD
:10096900120D697B01120D757B007A007912AD0EAB
:10097900120B34EF600B146003020A3AD2B3020A75
:090989003AD2B4020A3A30B34A32
:100992007B007A007912E4F51FAD0E120C638F16FC
:1009A200C3E5166480F8E50E6480985016050E744F
:1009B20011250EF8E6FF3395E0FEEF64014E700359
:1009C200120D69E50E6516706FFB7A007912120E30
:0A09D2006CEF6060C2B3D2B4805E27
:0309DC0030B45BD9
:1009DF007B007A007912751F01AD0E120C638F1612
:1009EF00D3E5166480F8E50E6480984023150E74E5
:1009FF0011250EF8E6FF3395E0FEEF64014E7010FF
:100A0F00D2B6D2B57411250EF8E4F67B01120D752E
:100A1F00E50EB516167B007A007912120E6CEF6098
:0B0A2F0006D2B3C2B48004C2B3C2B44C
:0B0A3A00AD0EAF0D120EA685080A22BB
:0B0F7300120ED9120CEA12080080F8E0
:100BE300020F73E493A3F8E493A34003F68001F2A6
:100BF30008DFF48029E493A3F85407240CC8C33313
:100C0300C4540F4420C8834004F456800146F6DFE1
:100C1300E4800B0102040810204080900F2FE47E33
:100C2300019360BCA3FF543F30E509541FFEE493D6
:100C3300A360010ECF54C025E060A840B8E493A39D
:100C4300FAE493A3F8E493A3C8C582C8CAC583CAC8
:100C5300F0A3C8C582C8CAC583CADFE9DEE780BE80
:010F5100009F
:100E1700C2D530F707B2D563F0FF05F030E70CB263
:100E2700D5F4048463F0FF05F080018430D502F423
:020E3700042293
:100E3900BB010CE58229F582E5833AF583E022506E
:100E490006E92582F8E622BBFE06E92582F8E222B8
:0D0E5900E58229F582E5833AF583E49322D2
:00000001FF
